:020000040800F2
:10000000F8F70120B502000887810308758103080D
:100010008981030895810308A1810308000000007D
:10002000000000000000000000000000AD81030897
:10003000AF8103080000000075910308D191030807
:10004000D9010008D9010008D9010008318203084C
:10005000EDEF0308D9010008BD810308C38103083F
:10006000C9810308CF810308D5810308D9B50308E6
:10007000E9B50308F9B5030809B6030819B603087A
:1000800029B6030839B60308D9010008D9010008C8
:10009000B1810308D9010008D9010008DB810308F8
:1000A000458203084B8203085D82030863820308CC
:1000B000698203086F82030875820308CF820308F0
:1000C000D5820308DB820308E1820308D901000816
:1000D000D9010008AB820308B1820308B782030884
:1000E000FF81030829820308D9010008D90100080B
:1000F000A1820308D9010008A7820308D9010008DA
:10010000D9010008D90100087D820308D90100083F
:10011000BD820308C3820308958203089B820308FB
:1001200059B6030869B6030879B6030889B6030807
:1001300099B60308D9010008D9010008D9010008BF
:10014000D9010008D9010008D9010008D901000827
:10015000D9010008D9010008D9010008D901000817
:10016000D9010008D9010008D9010008D901000807
:10017000D9010008D9010008D9010008D9010008F7
:10018000D9010008D9010008D9010008D9010008E7
:10019000D901000800000000D9010008D9010008B9
:1001A000D9010008D9010008D9010008C982030853
:1001B000D9010008D9010008D9010008D9010008B7
:1001C00049B60308A9B60308B9B60308C9B60308B7
:0801D000D9010008D901000863
:1001D800FEE70000054BD3F8882042F47002C3F80C
:1001E80088204FF000629A60704700BF00ED00E081
:1001F80010B5A8B01422002168462CF099FC3822CA
:10020800002105A82CF094FC5422002113A82CF0FE
:100218008FFC002031F01CF921214FF48033CDE907
:10022800051300224023CDE90823012355200B9311
:1002380008240223CDE90E300321CDE911431093A0
:100248000C930F23CDE900314FF4A06C4FF4806379
:1002580005A8CDE903C30D91029231F089F910B1D7
:100268000E4837F0F5FB2146684631F0C7FB08B168
:100278000B48F6E70B4B13934FF00053229019905D
:1002880021902390249313A84FF48073279331F07F
:10029800D3FC08B10448E4E728B010BD280C0408D2
:1002A8003A0C040820F008004E0C04080446DFF855
:1002B8002CD00B490B4A0C4B03E051F8040B42F8C5
:1002C800040B9A42F9D300200849094A01E041F891
:1002D800040B9142FBD3204637F044BDF8F70120C8
:1002E8000861050800000020980000209800002000
:1002F8006024002040F8044B40F8045B40F8046B8D
:1003080040F8047B40F8048B40F8049B40F804ABA9
:1003180040F804BB40F804CB40F804DB684670475B
:10032800034B1B685B685A6902605861002070477C
:10033800F80A0020034B1B685B685A6912685A6107
:10034800704700BFF80A0020034B1B685B689A6976
:10035800C0E9002198617047F80A0020054B1B6826
:100368005A6893691968916110B15A68184610471C
:10037800704700BFF80A002038B5064B1B685D6857
:100388000446AB690BB1A34200D338BD0120FFF787
:10039800E5FFF6E7F80A0020C46005614661876159
:1003A800C0F81C80C0F82090C0F824A0C0F828B07D
:1003B800C0F82CD080ED0C8B80ED0E9B80ED10AB3F
:1003C800C0F808E0FFF7ACBF134A126855686C69BB
:1003D80008B50CB937F0B2FC60602046FFF7CCFFD7
:1003E80023686B612046C468056946698769D0F847
:1003F8001C80D0F82090D0F824A0D0F828B0D0F8ED
:100408002CD090ED0C8B90ED0E9B90ED10ABD0F8AE
:1004180008E00120704700BFF80A002010B500214D
:10042800044600F0E1FA18B914B120460DF010FCAA
:1004380010BD002100F0D8BA10B50121044600F023
:10044800D3FA18B914B120460DF002FC10BDFFF71D
:10045800E5BF10B501220C4600F0E6FB18B914B14F
:1004680020460DF0F5FB10BD00F0DEBB00F09CBB94
:100478002DE9F0432A4C00254FF0030CD4F8EC6228
:100488000021013143189A0803F00303B25C5B00B2
:1004980042FA03F303F00303022BF2D0D4F8F83244
:1004A800090103EB00108E0889B300EB8606036888
:1004B8001A0729D1D4F8F8125A1AC2F3011E994220
:1004C8004FEA92174FEA4E0E4FEA12121CD8D4F890
:1004D800FC12994218D9D4F8EC9219F8078048FA16
:1004E8000EF303F003030CFA0EF1012B41EA0801A5
:1004F8000AD104EB450E3F2D09F807109ABF0135C4
:10050800AEF80C23C4F808330430B042CFD12DB173
:10051800013D04EB4503B3F80C03AFE7BDE8F083F6
:100528009800002030B51C4CD4E9BD53C01AC1094D
:10053800C0F3021E6B5C012202FA0EF223EA0203E8
:100548006B54D4F8002383094FEA101CB2EB901FB8
:10055800D4F8EC0288BFC4F80033C15C4FEA9C0EA3
:100568000CF0030303255B0005FA03F321EA0303F8
:1005780000F80E300CF1010CD4F8EC024FEA9C0E96
:100588000CF0030310F80E105A0041FA02F202F0C0
:100598000302022AE7D030BD9800002021F00F01A5
:1005A8000A1A10B5013A144CD200A4FB0242134CAB
:1005B800520AC4F8FC12A1EB8211C4E9BB0203463B
:1005C800C4F8F812910001321344073102EBD1024A
:1005D800C4F8F43200212CF0ABFA094A12685068CA
:1005E800002301214FF0FF32C4E9C0330381C4E97D
:1005F800E432A4F88C1310BDF32C23FA98000020E1
:10060800F80A0020034B1B685A68138901331381C9
:10061800704700BFF80A0020034B1B685A6813890B
:10062800013B1381704700BFF80A0020034B1B6889
:100638005B681889003818BF01207047F80A002045
:10064800F8B51E4B1E4D1B6859680B8900220133F3
:100658000B8105F1080405F50F76C5F89023C5F858
:100668000823032754F8043F1A071AD1D5F8F822AB
:10067800981AC0F3011193424FEA901C4FEA4101C6
:100688004FEA10100DD3D5F8FC22934209D2D5F8C1
:10069800EC2212F80CE04EFA01F303F00303012BED
:1006A80002D0A642DED1F8BD07FA01F141EA0E01F7
:1006B80002F80C10FFF7DCFEF3E700BFF80A002091
:1006C80098000020A9B32DE9F0411A4E0F46051FE6
:1006D80000244FF0030855F8043F1A0704F10104F9
:1006E8001AD1D6F8F822981AC0F3011C9A424FEA98
:1006F80090114FEA4C0C4FEA10100DD8D6F8FC2296
:100708009A4209D9D6F8EC2212F801E04EFA0CF315
:1007180003F00303012B03D0A742DCD1BDE8F0812D
:1007280008FA0CFC4CEA0E0C02F801C0FFF7A0FE18
:10073800F2E77047980000202DE9F04F654CD4F897
:10074800083383B0002B00F0B880D4F8F0120026EC
:100758008900C4F808638946002948D00027D4F8DE
:10076800EC02BA0807F00303825C5B0042FA03F369
:1007780003F00303032B0D4647D001378F42EED316
:10078800D4F80833002BE4D1D4F80433AB4238BF93
:100798005D1C002D00F09C804FF00009CC464F46B0
:1007A800032304E0012A44D00137AF421FD0D4F814
:1007B800EC024FEA970807F0030610F808107600D5
:1007C80041FA06F202F00302022A00EB970E2BD040
:1007D800032AE7D1022202FA06F6B946013721EACE
:1007E8000601AF4200F808104FF0000CDFD13A4A7A
:1007F800C4F80493126852680023C4F800331389BC
:10080800013B138103B0BDE8F08F3846FFF730FE97
:10081800D4F8F01201378900B9420D469FD8D4F8B0
:100828000833002B95D1AFE7BCF1000F3CD1B94696
:10083800BAE7D4F8F4224FEAD70B07F0070A12F800
:100848000BC04CFA0AF0C00702EBD7022CD5D4F83B
:10085800F812380151F800E001EB0710BEF1000F63
:1008680015D06A4640F2B3310CF086FB009A032398
:1008780042B10DF051FCDDE900010DF029FC0DF04D
:1008880061FC0323D4F8F42212F80BC05A44012166
:1008980001FA0AFA2CEA0A0C82F800C0D4F8EC2211
:1008A80012F8081002EB080E03FA06F621EA060110
:1008B8008EF800104FF0010C76E7D4F8F052D4F817
:1008C8000433AD00AB4238BF5D1C002D7FF464AF2C
:1008D800A9468CE798000020F80A0020054B064935
:1008E8001B685A681389013300201381C1F8080373
:1008F800FFF722BFF80A002098000020394BD3E9FF
:10090800BE122DE9F047521A0024D3E9BB61C0E9B1
:100918000144C0E90344C0E9054402604FEA810C80
:10092800A646274625462246A1462146A04616F851
:10093800093049000B4103F00303012B47D0022B78
:1009480041D0002B38D0013294450ED04FEA92099D
:1009580002F0030116F809304FEA410A43FA0AF394
:1009680013F0030301D0012BE1D1012D11D0022D89
:1009780002D14169013141618169A94238BF85616C
:1009880094450FD0012B26D04FEA920902F00301BB
:10099800CDE70169013101618169A94238BF8561EB
:1009A8009445EFD1474500D9C76024014FEA0E139B
:1009B800C0E90143BDE8F0870EF1010EC0F808E078
:1009C80001371D46BFE7013444600135BBE70134F8
:1009D80044601D46B7E7B84501D2C760B84600274E
:1009E800D2E700BF980000200F302DE9F843060930
:1009F8005DD06B4B1B685B681B89002B57D1694C1A
:100A0800B4F88C33002B0D460CBF4FF0010E4FF09D
:100A1800000E50D1D4F80003D4F8F072B84239D29D
:100A2800D4F8ECC2411E614400221AE00132964219
:100A380051D913F00C0F1ED10132964240F2A68014
:100A480013F0300F1CD10132964240F2A28013F00D
:100A5800C00F1AD10132964240F29E800130B8424E
:100A680018D211F8013F13F0030FDFD013F00C0F69
:100A78004FF00002E0D013F0300F4FF00002E2D048
:100A880013F0C00F4FF00002E4D00130B8424FF02D
:100A98000002E6D3BEF1000F09D13CF01BFDD4F8EB
:100AA8000003D4F8F072B8424FF0010EB8D3002317
:100AB8001846BDE8F883D4E9E4239A42AAD33CF067
:100AC80009FDD4F80003D4F8F072B84238BF4FF0EB
:100AD800010EA5D3EBE78000811A012A01F1010775
:100AE80003D1431C9B08C4F80033D4F80433834271
:100AF80038BF03464FEA970EC4F8043307F00303E0
:100B08001CF80E904FEA43080123023103FA08F358
:100B180043EA090388420CF80E3013D34FF0020859
:100B28004FEA910CD4F8ECE201F003031EF80C90A4
:100B38005B0008FA03F3013143EA090388420EF81F
:100B48000C30EDD2D4F89033D4F8F8823344C4F89A
:100B5800903308EB07131201184600212BF0E8FF29
:100B6800EA074FEA07160346A2D50022D4F8F40292
:100B780048F80620F9080122445C07F0070702FA42
:100B880007F7274347541846BDE8F883800001302B
:100B9800A2E7800002309FE7800003309CE700BF97
:100BA800F80A002098000020044B1A68526812893D
:100BB80012B908B1FFF7B6BC704700BFF80A0020A9
:100BC80010F00F021CD11749D1F8F832834218D817
:100BD80010B4D1F8FC4284420ED9C31AD1F8EC42C1
:100BE8009909C3F30110615C4000014101F0030160
:100BF80001294FEA131306D010465DF8044B7047DD
:100C080000221046704701329918880801F0030144
:100C1800205C490040FA01F101F003010229F2D0F9
:100C28001201E9E7980000202DE9F04F894683B0CA
:100C38000446002800F0C180002900F08280DFF817
:100C48009081D8F800305B68198900297FD15F4D01
:100C5800D5F8F832D5F8F072A4EB030A4FEA1A1364
:100C680003F1010C09F10F00BE00BCEB870F4FEA3E
:100C7800101001968E4680F0A780D5F8ECB20127B7
:100C88006646B10806F0030C1BF801104FEA4C0C3D
:100C980041FA0CF101F0030102295DD029B90EF1E6
:100CA800010E0EEB0701814257D3B84244D025D339
:100CB800BE44864556D2002A49D0D5F8F4224FEAD8
:100CC800DA1A03F0070312F80A10194101F00101BA
:100CD8004846FFF789FE0646002838D03A012146E3
:100CE8002BF0E2FED8F800305B681B892BBB20464E
:100CF800FFF718FC304603B0BDE8F08F184484466F
:100D08003B444FF003094FEA9C06D5F8EC720CF00F
:100D18000302B95D520009FA02F20CF1010C21EA52
:100D280002029C45BA55EED1D5F800338208B3EBE0
:100D3800900F88BFC5F800232646304603B0BDE8AB
:100D4800F08F234B1B685B681E89002ED0D00026CD
:100D5800304603B0BDE8F08F013701990136B14242
:100D68008FD1A2E719183B44994213D94FF00208D2
:100D78008E469E08D5F8EC1203F0030211F806C05F
:100D8800520008FA02F2013342EA0C029E458A55E3
:100D9800EFD17146D5F80433C21B8B4238BF0B46DE
:100DA800120104EB07100021C5F804332BF0C0FE34
:100DB8002646304603B0BDE8F08F0146484603B0EA
:100DC800BDE8F04FFFF710BE01276EE7980000203E
:100DD800F80A002010B58AB0044603A8FFF78EFD74
:100DE800DDE90430039A00900749204600F096FF99
:100DF800DDE908310698079ACDE900100349204635
:100E080000F08CFF0AB010BD680C04088C0C0408B4
:100E18002DE9F84FDFF85CB14A49DBF8F8220746BC
:100E280000F07CFFDBF8F022920077D0DFF84881F1
:100E3800DFF848A1DFF8489100250EE0012E3DD0EB
:100E48002E224149384600F069FFDBF8F0320135BF
:100E5800B5EB830F4FEA830260D215F03F0610D03E
:100E680005F003067600DBF8EC22AB08D35C43FA06
:100E780006F606F00306022E1ED0032EDED16D22E2
:100E8800DFE7DBF8EC122C46A00804F00303085C4B
:100E98005B0040FA03F39B0702D101349442F3D379
:100EA800621B7F2A2ED805F0030676002A014146E8
:100EB800384600F033FFD6E73D22C2E7DBF8F822D8
:100EC8002B01D2584A452FD0204B9A422ED0204B86
:100ED8009A422FD01F4B9A422AD01F4B9A4227D0B2
:100EE8001E4B9A4228D01E4B9A4225D01D4B9A423F
:100EF80026D01D4B9A4221D01C4B9A420CBF4D2242
:100F080068229EE792095146384600F007FFDBF851
:100F1800F03224F03F05B5EB830FC7D338461449A8
:100F2800BDE8F84F00F062BB54228AE74C2288E7FC
:100F3800532286E7442284E7412282E7422280E75F
:100F480046227EE7D40C0408140D04084C840408D7
:100F5800447B0408AC8F04083C8E04081478040809
:100F6800C877040850800408A4800408E0850408B1
:100F7800D00C0408980000200C0D0408F00C04089C
:100F880000910408064A0346506A1A684168C1F38A
:100F98001E018A4202D3521A1A6070470068F5E7A8
:100FA80098000020014441F20553884204D398B2C6
:100FB800012838BF0120704710F8012B03EB4313B9
:100FC8005340F2E7034B044A5A620022C3F8402216
:100FD800704700BF9800002038C804082DE9F04782
:100FE80081460F46002943D0FFF7DCFF214B5C6A9E
:100FF80082460CB9204637E094F90730E668002BA2
:1010080006F1FF364FF0000516DB013604F118082B
:10101800B54215D32468ECE706EB05084FEA5808F3
:1010280008F106033A4654F8231048462BF0E0FD31
:101038000028CCBF45464646731B012BECD8E4E795
:10104800236933F815309A4510D163695B5D9F4277
:101058000CD158F825003A4649462BF091FD28B99D
:101068006068C0F31E002844BDE8F0870135CFE76B
:101078000120F9E7980000202DE9F84381460E4643
:10108800FFF7ACFF0246002840F09280FF2E03D9FC
:1010980049494A480BF0F2FF494CD4F84002751C04
:1010A80090B1D4E991132B448B4229D92944FFF7F5
:1010B800DBF90746D8B90246D4F84812D4F84002FA
:1010C800FFF7D2F9C4F84072802D2F4638BF802729
:1010D8003846FFF7AEF9C4F84002D0BB2846FFF700
:1010E800A8F9C4F8400298BB28460CF0B1FDD4F822
:1010F80044322B44C4F84432D4F84032002BE3D0B5
:10110800D4F84832D4F8407231461F4448462B443C
:10111800C4F84832FFF746FF49468046324638460B
:101128004FF000092BF0C0FC07F80690636AD3E97A
:101138000253AB422AD36D000A2D38BF0A25C5EBEE
:10114800C5001830FFF775F948B9C4F84002CBE775
:101158002F460023C4F84472C4F84832D0E700F19F
:10116800180303EB8503626A036103EB45034361DC
:1011780053680260D268C0F80C90C3F31E0313448E
:10118800426863F31E02C0E901256062636AD3E91D
:1011980003025B6922F810801E54821D636A43F8BB
:1011A8002270DA680132DA605A68C2F31E02024419
:1011B8001046BDE8F88300BF170D0408A47E040894
:1011C8009800002010B504462BF0ECFC01462046A0
:1011D800BDE81040FFF750BF07B5019001A8FFF721
:1011E800D1FE019A036933F8120003B05DF804FBDD
:1011F80007B5019001A8FFF7C5FE019B4269D05CC5
:1012080003B05DF804FB07B5019001A8FFF7BAFE2B
:10121800019B063350F8230003B05DF804FB13B5B7
:10122800019001A80C46FFF7ADFE019B4269D25C14
:101238002260063350F8230002B010BD2DE9F843B0
:101248001D46002303600B6013602B60164BDFF80C
:101258005C905C6A0746884616460CB14C4505D139
:101268002B68326813442B60BDE8F8833B68013370
:101278003B60E268D8F800301344C8F8003062696F
:10128800E368D1188A4207D32046FFF799FC2B68F8
:10129800246818442860E0E7336812F8010B01332A
:1012A80003443360EEE700BF9800002038C8040804
:1012B8002DE9F8430D4B0E4F5C6ADFF83880DFF8F4
:1012C80038900CB1BC4201D1BDE8F883E36804F161
:1012D800180505EB8306B54201D32468F1E755F8F4
:1012E800042B4146484600F019FDF4E79800002019
:1012F80038C804081F0D0408A462040830B5002388
:10130800202411F8012F0AB9027030BD120600F12D
:1013180001051FD50BB1047028460B78124A03F05B
:101328007F036BB9013A12F8013F13F0800F0546AD
:1013380000F101000BD003F07F032B700123E0E7DD
:1013480012F9015B002DFBDA013BDBB2E9E700F89B
:10135800013CE8E7012B04BF047028460B7800F82D
:10136800013B0223CDE700BF260D040838B54468C9
:10137800036821449942054610D9037B1BB10848EC
:1013880000210BF07BFE01F1100424F0070408345F
:1013980080682146FFF75DF82C60A86038BD00BF63
:1013A800A47E040870B504460E4611461546FFF79C
:1013B800DDFFD4E901302A46314618442BF0A4FB5E
:1013C80062682A44626070BD70B54668B1420446DE
:1013D80028BF31460D460121FFF7C8FFA368681CE6
:1013E8005919721B18442BF08FFB6368A0680133EE
:1013F8006360284470BD38B50129044638BF01210F
:101408000025084621606560FFF708F82573A0608D
:1014180038BD38B505460C460131FFF7ECFF6C6066
:1014280038BD0023C0E9013201230160037370470E
:1014380038B514460546FFF7DEFF024B25606360AA
:1014480038BD00BFAD130008037B10B5044613B9BF
:101458008068FFF70BF80023A36010BD13B5019057
:101468001020FEF7DBFF01990446FFF7C4FF204672
:1014780002B010BD10B5044648B1037B13B98068AB
:10148800FEF7F4FF2046BDE81040FEF7EFBF10BDA1
:1014980038B5037B04460D461BB1074800210BF005
:1014A800EDFD016880682944FEF7D3FF2368A0603A
:1014B8001D442560184438BDA47E040838B5044688
:1014C8000D46FFF753FFD4E901301D446560184409
:1014D80038BDD0E900239A4210B5044602D1012153
:1014E800FFF7D6FFD4E901320021D154A06810BD1E
:1014F80010B50C460121FFF7E1FF047010BD7F29EC
:10150800F8B50C46CEB204D80121FFF7D7FF067014
:10151800F8BD06F03F06B1F5006FC1F3871546F038
:10152800800607D20221FFF7C9FF65F03F05057065
:101538004670EDE705F03F05B1F5803FC1F3073789
:1015480045F0800508D20321FFF7B8FF67F01F07B1
:10155800077045708670DBE70421FFF7AFFFA40C26
:1015680007F03F0764F00F0467F07F0704704770C7
:101578008570C670CCE713B50446084601912BF078
:1015880011FB01990246204602B0BDE81040FFF762
:1015980009BF10B51446FFF717FF047010BD10B54A
:1015A8001446FFF711FF047010BD43688B422CBF2F
:1015B800591A00214160704738B5044615466268DB
:1015C8008A42084603D929448A4201D8606038BD56
:1015D800A368521A184419442BF096FA6268521BF1
:1015E8006260F4E7084611462CF082BA37B5054622
:1015F800084601912BF0D6FA044620B102466B68E2
:10160800019928689847204603B030BD2DE9F74F67
:1016180089469DF8301017460D9A11F0DF0F0646DF
:10162800A2EB07023DD0302925490CA813BF8046FC
:1016380088464FF0100A4FF0010A13F0800535D0A4
:1016480002EBD2746510A2EB6404002D35DDAB46C5
:10165800DA45524673683068A8BF5A464146019237
:101668009847019AABEB020BBBF1000FF0DC2FB1EE
:10167800736830683A46494698473D44002C0CDD6B
:101688002544A2455746A8BF2746736830683A469E
:101698004146E41B9847002CF3DC284603B0BDE81C
:1016A800F08FDFF820804FF0100AC6E713F001042E
:1016B80001D11546C9E71446D9E70025D7E700BF89
:1016C800BD620408AC6204082DE9F04389B00646FF
:1016D8000020119D9DF84880139F8DF80F000AB3D4
:1016E80081421ADA2D228DF80F204942109A08AC4F
:1016F800A2F10A000DF11009B1FBF3FC03FB1C1267
:10170800092A8CBF1218303204F8012D4C458E4638
:1017180061460ED07345EFD90BE0A80727D52B22D9
:101728008DF80F200029E1D130238DF81F300DF1FD
:101738001F0415F040099DF80F301CD023B3012277
:10174800CDE900822B460DF10F013046FFF75EFF11
:10175800013F814608AACDE900872B46121B214686
:101768003046FFF753FF484409B0BDE8F0836A07E5
:10177800D8D52022D4E7002BECD004AA9442E9D98A
:1017880004F8013C013CE5E79946E3E72DE9F04F11
:1017980093B01E469DF874300793CB07DDE91E878A
:1017A8001C9D81460C4692460BD4880703D10968D4
:1017B8007F4B994205D020460DF0E6FA400040F0F4
:1017C800010415F0810306D1079A302A03D1B845E0
:1017D800B8BFB8461F46204610F082FC00280DF11D
:1017E800280B18DBA90712D52B238DF828300DF10B
:1017F8002901EB06F6B21DD5BAF1020F0DD10B4641
:10180800302003F8020B701C4870194612E06A0772
:1018180001D52023E9E75946EBE7BAF1080F62D171
:10182800A8054FF030030B7045BF06F10E034B704F
:1018380001310231002315F0200FA1EB0B020B70D0
:101848000CBF19462C21012F0EA8C8BF45F0400532
:1018580006920B9015F040024FF01000CDE90C03F2
:10186800CDE902618DF82730059246D0CDE900A375
:101878000DAA23460CA90BA810F00AFB03782D2B00
:10188800824606D18DF827300D9B013B00F1010AF5
:101898000D93012F40F384800D9C059BBC42B8BF7B
:1018A8003C462BB19DF8273003B10134069B1C44FC
:1018B800A0452DDD15F00103A8EB040429D1264627
:1018C8001C4625F001054EB1202300930023019604
:1018D80038491A464846FFF799FE0646059BD3B98C
:1018E800302307933AE0BAF1100FA3D10B4630200A
:1018F80003F8020B06F1170086E70AABCDE900A34F
:101908000DAA23460CA90BA810F0C2FA8246C0E71C
:1019180000240026D5E7302307939DF827305BB1D4
:1019280000230122CDE900320DF127014846FFF7D7
:101938006DFE08F1FF380644069B63B100230122BF
:10194800CDE900325946069A4846FFF75FFE069BE6
:101958000644A8EB0308012FD8BF4746079B00930E
:101968000D9A01972B4651464846FFF74FFE06440D
:101978004CB12023009300230E4901941A4648468F
:10198800FFF744FE06440B980EAB984201D0FEF7D1
:101998006DFD304613B0BDE8F08F00242646BCE745
:1019A800059B002BF9D11C461E464746D6E700BFCB
:1019B800F882040893FD04082DE9F04316468BB01D
:1019C800B207DDF848900746984640D416F0040F51
:1019D8000CBF0023202300930A46139B202102A852
:1019E8000AF014FAF305044610D5431C1F2B0DD832
:1019F80000F128020DEB0204252204F8202C03F143
:101A080028026A44002102F8201C1C4616F04005F2
:101A18001FD09DF808302F2B4FF000031BD8012250
:101A280002A9CDE900323846FFF7F0FD09F1FF3988
:101A38000546013C0DF10901CDE9008933462246EE
:101A48003846FFF7E3FD28440BB0BDE8F0832B23AD
:101A5800C1E702A9F0E702A91D46EDE72DE9F04F1D
:101A6800824689B0144600260B461D4613F8012B02
:101A780082B9A94211D30B78002B00F046810131BD
:101A880020234FF000080A4612F8015B7DB94FF099
:101A98000A0C2AE0252AE8D1EBE76F1ADAF80430B5
:101AA800DAF800003A4698473E442946E3E72D2DE8
:101AB80003D148F001081146E5E72B2D02D148F083
:101AC8000208F8E7202D02D148F00408F3E7212D99
:101AD80002D148F00808EEE7302D22D148F040083E
:101AE8002B46E8E70CFB0525303D0F4611F8012B86
:101AF800A2F130000928F5D92E2A42D17A782A2A6B
:101B080011D00A464FF00A0C0021174612F801BB03
:101B1800ABF13000092809D80CFB01BBABF130014F
:101B2800F3E70025B3E754F8041B023721EAE17B09
:101B38003A786C2A08BF013797F80090B9F1000F7E
:101B480000F0E380B9F1780F6BD8B9F1570F1BD8C3
:101B5800B9F1470F62D8B9F1440F62D9073424F0BC
:101B68000704F4E8020104933EF068FECDE9005B47
:101B780000EE100A049B424649465046FFF71CFFF8
:101B880063E04FF0FF3BD3E7A9F15802202A48D879
:101B980001A151F822F000BFE11C00082B1C00082D
:101BA8002B1C00082B1C00082B1C00082B1C0008F1
:101BB8002B1C00082B1C00082B1C00082B1C0008E1
:101BC8003D1C00085F1C0008C51C0008651B0008B8
:101BD800651B0008651B00082B1C00082B1C00084F
:101BE8002B1C00082B1C00082B1C00082B1C0008B1
:101BF8002B1C00082B1C0008031D0008731C000880
:101C08002B1C00089D1C00082B1C0008E11C000868
:101C18002B1C00082B1C0008E11C0008B9F1500F10
:101C28006BD0DAF80430DAF8000001223946984718
:101C380001360BE054F8042BCDE9003543463AB1A0
:101C4800344904225046FFF7E1FC0644791C0BE7AF
:101C580031490522F6E754F8042B8DF81C20CDE90C
:101C680000350122434607A9ECE707A954F8040BFD
:101C78000493FFF7D4FABBF1FF3F049B014604D05D
:101C8800079A934538BFCDF81CB0CDE90035079ABF
:101C98004346D7E754F8041B0593084604912AF0F5
:101CA80081FFBBF1FF3FDDE90413024602D058452E
:101CB80028BF5A46CDE900354346C3E7CDE902358A
:101CC80061230093CDF804800A23012254F8041BF1
:101CD8005046FFF7F9FCB8E729F00F0209F10101B6
:101CE8000F3A01F00601D2B2CDE90235CDF80480F1
:101CF8000092C1F110030022E8E7CDE90235612323
:101D08000093CDF804801023F5E7304609B0BDE80C
:101D1800F08F00BF986204089D6204080EB403B5F2
:101D280003AA52F8041B0192FFF798FE02B05DF86F
:101D380004EB03B0704790F90010037800290246BD
:101D480001DB1846704703F07F004023184206D194
:101D580012F8013F03F0C001802904D0704720EA3F
:101D680003005B08F2E703F03F0343EA8010EFE764
:101D7800431C18460133027802F0C002802AF8D0CA
:101D8800704703460020994200D8704711F8012D8A
:101D980002F0C002802A18BF0130F4E7014403466C
:101DA800002099421A4600D87047127802F0C00203
:101DB800802A03F1010318BF0130F2E77F289DBF95
:101DC800024B185CC0F3400000207047CE62040844
:101DD8007F289DBF024B185CC0F3C00000207047ED
:101DE800CE6204087F289DBF024B185CC0F38000B8
:101DF80000207047CE6204087F289DBF024B185C04
:101E0800C0F3801000207047CE6204087F2809D8EC
:101E1800064B1B5C13F00C0F06D1A0F15F03584270
:101E2800584170470020704701207047CE6204086F
:101E38007F289DBF024B185CC0F30010002070473C
:101E4800CE6204087F289DBF024B185CC0F3401087
:101E580000207047CE62040808B50246FFF7E8FF85
:101E680000B12032104608BD08B50246FFF7EAFF68
:101E780000B1203A104608BD3038092884BF20F048
:101E880020000738704710B501440246E5240020B9
:101E9800914203D8B0FA80F0400917E012F8013BEC
:101EA80030B103F0C003802B11D10138C0B2EFE785
:101EB800BF2B09D9F72B09D8D80800F0060044FA37
:101EC80000F000F00300E3E71B06E1D510BD002099
:101ED800FCE7023981420B4603D31A880239002AEB
:101EE800F8D00233181A40107047B2EB131F70B5C0
:101EF80005464FEA131614D9901B03F00F0401EBA3
:101F0800460102460E46012A31F8023B18BF3368E3
:101F1800E3409BB2013A25F8023BF3D103B90138FB
:101F280070BD0020FCE7F0B5059F0024D21B2646B3
:101F3800A74210D100EB470C01EB47010024A24255
:101F480014D10CEB42031EB101212CF812100233FC
:101F5800181A4010F0BD31F8145033F814C0654415
:101F6800354420F814502E0C0134E1E731F81450B0
:101F780035442CF814502E0C0134E0E7F0B4049FDB
:101F88000025D21B2C46AF420BD100EB470601EBD4
:101F9800470500239A420FD106EB4201F0BCFFF738
:101FA80098BF31F81560344433F81560A41B20F845
:101FB800154024140135E6E735F813100C4426F8CB
:101FC800134024140133E5E72DE9F043079CDDF8BD
:101FD80028E0DDE908760239154684464FF6FF7891
:101FE800A4EB020955B900EB42011FB1012320F807
:101FF80012300231BDE8F043FFF76BBF31F8024FF2
:10200800013D4444264405EB0904AC4296BF33F82D
:10201800024B4FF6FF744444744486EA040E17FAE0
:102028008EF72CF8027B4FEA144E360C3F0CD9E79A
:1020380038B502290446806838BF02210D4618B118
:102048002368B1EB930F07D96900FEF702FA2368FA
:10205800A06065F39F03236038BD38B504460C20A3
:10206800FEF7DCF923682278054602F00102C3F383
:102078009D0023F0030313432B6063686B604000EB
:10208800FEF7CCF9A8602268A168C2F39D0252004D
:102098002AF00AFD284638BD994210B511D313D845
:1020A80000EB410002EB410209B9084610BD30F8C7
:1020B800023D32F8024D1B1B002B02DB04D1013913
:1020C800F2E74FF0FF30F1E70120EFE710B50446E3
:1020D80038B18068FEF7CAF92046BDE81040FEF71F
:1020E800C5B910BD38B505460C460221FFF7A0FF5B
:1020F800002C2B78B4BF0122002262F300032B705E
:10210800AB68B4BF61422146023B012223F8021F9B
:10211800090C104602F10102F8D1686038BD0023AD
:10212800C0E900338360704728B103789B0702D465
:102138008068FEF79BB9704738B505460C46496874
:10214800FFF776FF22782B78A86862F300032B70DC
:1021580063686B606268A1685200BDE838402AF085
:10216800A3BC0A4629B90178426062F300010170F4
:102178007047FFF7B7BF08B5FFF7D1FFBDE80840C4
:10218800FFF7EFBF920042F0020210B40260002293
:10219800C0E901215DF8044B1946FFF7E2BFF8B525
:1021A8009DF8187014461D4604210646FFF740FFA7
:1021B80022462B4627B1002D0CDA624265EB450317
:1021C800317867F3000131700021716052EA030130
:1021D80002D1F8BD0027F3E7D6E901104C1C746062
:1021E80020F81120120C42EA03421B0CEEE72DE9FD
:1021F800F3418DED010A019C0378E20F62F30003BD
:102208000370C4F30F4313F4FF43074608D13B7828
:102218006FF300033B7000237B6002B0BDE8F081E0
:10222800B3F5FF4FF3D0C4F3C753A3F17F05002DD7
:10223800EDDB05D1012102B0BDE8F041FFF752BF47
:10224800B3F16F0848BFA3F16008C4F31604162D54
:102258004FEA281844F4000421DCC5F11705EC40C6
:1022680000252E4641463846FFF7E2FEC7F80480AF
:1022780026B1B868720000212AF05AFC45B1BB6843
:1022880004FA05F223F81620C5F11005EC400136D2
:10229800B045C2D0BB6823F81640240CF7E7B3F169
:1022A800960605F1090548BFA3F1870605F00F0555
:1022B8003611D7E72DE9F84304468F18C2F35B02BD
:1022C8000D46511C9846089EFFF7B2FE237868F326
:1022D800000323700023636029461FFA86FCB94275
:1022E800084602D3401BBDE8F8830278A2F1300308
:1022F800092B01F1010105D9A2F14103192B14D8C9
:10230800A2F13703B342EDD2D4E901E0F0468146A9
:10231800B8F1000F10D100EB4E0213B120F81E30B7
:102328000232121A52106260D9E7A2F16103192B26
:10233800D8D8A2F15703E5E7B9F8002002FB0C331F
:1023480029F8023B08F1FF381B0CE1E7F8B5044611
:1023580015461E46C1B1531E1E444FF0FF37E90013
:102368000F3109092046FFF763FE237800216FF338
:102378000003237061604DB9D4E9011000EB4101FD
:10238800FFF7A7FD6060F8BD0127E8E700230F29E4
:1023980008DC32788A401343013D9BB201F1080101
:1023A8003E44F4D16268501C6060A068103920F87F
:1023B8001230E0E738B50B780578044603F00103DE
:1023C80005F00100181A08D1D1E90132D4E9011049
:1023D800FFF762FEEB0748BF404238BD884210B5A0
:1023E800044601D0FFF7A8FE23786FF3000323709B
:1023F80010BD884210B5044601D0FFF79DFE636802
:102408003BB12378C3F30002C2F1010262F3000377
:10241800237010BD88421FB5044601D0FFF78CFE1B
:10242800626862B901212046FFF702FEA268012313
:1024380013806360237843F00103237010E023784E
:10244800D9070FD5A1686FF3000323700123ADF8F6
:102458000E30009308460DF10E03FFF78FFD606004
:1024680004B010BD511C2046FFF7E2FDD4E901215C
:102478000123ADF80E30009308460DF10E03FFF767
:1024880052FD6060D6E72DE9F8434B6805460E46D5
:10249800144603B12AB931462846BDE8F843FFF788
:1024A8004BBE02F10F014FEA111803EB1111FFF7B0
:1024B800BFFDD6E9013108EB0307A86807F1004220
:1024C80014F00F0402F1FF3208BF102400EB4200A1
:1024D80001EB430E814619464FF0000CC4F110047D
:1024E800E9B96FF0010253432CFA04F4C218C4523C
:1024F800C8F1010302EB430308F1FF32184652000A
:102508002AF016FB831E17B133F817209AB16F60B3
:1025180032782B7862F300032B70BDE8F8833EF81D
:10252800022D42EA0C0C2CFA04F229F802294FEA8F
:102538000C4C0139D4E7013FE5E7F0B50E46496890
:1025480085B00546144601B132B93146284605B072
:10255800BDE8F040FFF7F0BDFFF76AFDD6E90121BD
:102568002346A868FFF7C1FC686032782B7862F3CD
:1025780000032B70DB072DD500237168ADF80E30F2
:102588002209994201D093420FD1914222D9B368CE
:1025980004F00F0433F81220012303FA04F4013C79
:1025A800224213D0ADF80E3008E0B76837F8137040
:1025B80057B101239142ADF80E30E8D8A96801233C
:1025C80050B90B806B6005E00133DAE7BDF80E30D7
:1025D800002BF3D105B0F0BD009302460DF10E03B8
:1025E8000846FFF7A0FC6860F4E773B50C4616468A
:1025F8000546D2E90132D1E90110FFF74DFD002867
:10260800BEBF234634461E4623783278616853405D
:10261800DB071BD401312846FFF70AFD73680093D6
:10262800D4E90121B368A868FFF77DFC68602378C6
:102638006A68C3F30003002A0CBF002303F00103F8
:102648002A7863F300022A7002B070BD2846FFF7AB
:10265800EFFC73680093D4E90121B368A868FFF719
:102668008DFCE3E7F7B50D4616460446D2E901327C
:10267800D1E90110FFF710FD0028BEBF2B463546F3
:102688001E462B783278696883EA0203B4BF0127B3
:102698000027DB0714D501312046FFF7C9FC736812
:1026A8000093D5E90121B368A068FFF73CFC60609E
:1026B8006268237882B962F30003237003B0F0BD27
:1026C8002046FFF7B5FC73680093D5E90121B3688C
:1026D800A068FFF753FCEAE72A7802F00102002F0E
:1026E800E9D0C2F10102E6E72DE9F04F15464A6844
:1026F8006B689A420E463EBF2E460B461D463378FF
:102708007168DB0785B0044621D42B7813F00107E4
:102718001DD1FFF78DFCD5E9011CA068B6683B46C2
:1027280099420BD100EB4101FFF7D3FB237860609E
:102738006FF30003237005B0BDE8F08F36F813205F
:102748003CF813502A4020F813200133E8E7013100
:102758002046FFF76DFC96F800A02B78D6F804C049
:10276800A0688AEA0307FF4307F0010E47F3000752
:10277800BFB2D5E901120AF001084AF3000A02972C
:102788001FFA8AF703F00109019743F30003B768BA
:102798009BB2A1EB0C01A7F1020A0093674683469E
:1027A8000391BFB900EB4C01BEF1000F03D0012328
:1027B80020F81C300231FFF78CFB606033782A78F0
:1027C800C3F30003C2F300021340227863F300024C
:1027D8002270B0E73AF8021F019B5940039B013F62
:1027E8008844D919B9429BBF32F8021B009B009953
:1027F80059408944029B08EA090159401EFA81F1AF
:102808002BF8021B4FEA19494FEA18484FEA114EB4
:10281800C7E72DE9F84F16464A6873689A420D468D
:102828003EBF35460B461E462B786968DB070446D3
:1028380031D4327812F001072DD1FFF7F9FBD6E930
:10284800013EA9686D68D4F808C0ED1A3A4693426B
:1028580012D101EB430100220CEB4303954214D142
:1028680003EB4503A3EB0C035B10636023786FF362
:1028780000032370BDE8F88F31F812003EF81260AB
:1028880030432CF812000132E1E731F8120023F846
:1028980012000132E2E701312046FFF7C9FB2A782E
:1028A80033786968A068AD68D6E901E702F00108E5
:1028B80003F0010942F3000243F30003A5F1020CFF
:1028C80092B29BB20E4682460125AEEB010E46B986
:1028D80000EB4101FFF7FDFA2378606043F0010344
:1028E800C7E73CF802BF013E8BEA020BD8440EEB67
:1028F800060BB34596BF37F802BB9B468BEA030B22
:10290800D94448EA090B6FEA0B0B15FA8BF52AF83C
:10291800025B4FEA19494FEA18482D0CD7E7F0B582
:1029280016464A6873689A4238BF0B460C463CBF45
:1029380034461E462778337861685F4017F00107F0
:1029480085B005463AD1FFF773FB237813F00103EE
:1029580028D1D6E9012C6168A868A768891A9A4223
:1029680011D107EB4207002300EB4202994213D131
:1029780002EB4101FFF7ADFA2B7868606FF30003B3
:102988002B7005B0F0BD37F813403CF81360744065
:1029980020F813400133E2E737F8134022F81340D8
:1029A8000133E3E7CDE90277019773680093D4E92F
:1029B8000121B368A868FFF707FBDDE70131FFF7DE
:1029C80037FB3378A868DB4303F0010303932378CC
:1029D800DB4303F00103029301230193736800931F
:1029E800B368D4E90121FFF7EFFA2B78686043F068
:1029F8000103C5E72DE9F04F4B6885B004460E4644
:102A080015460BB1536843B923786FF3000323705D
:102A18000023636005B0BDE8F08F81422ED1FFF737
:102A28001CFBA5420646074600D105466B6871683F
:102A380020461944FFF7FCFA2268A068C2F39D02F9
:102A4800520000212AF074F8B368D4F808E0D6F8E8
:102A580004900193AB68029300226B6803930EEB1A
:102A68004908F4461146039B934231D0DDF804B07F
:102A7800CDF80090ACF10200002318E0824204D1A6
:102A8800FFF7EBFA05460746D0E70027CEE730F810
:102A980002AF53441946029B3BF802AB33F812309D
:102AA80003FB0A130099038001391B0C009100995C
:102AB8000029ECD14146881C13B1A8F80030014622
:102AC800A1EB0E0149100CF1020C01328046CAE755
:102AD80061602A78337853402278384663F30002DD
:102AE800227005B0BDE8F04FFFF7F0BA4B6870B53B
:102AF8000546144613B11378DA0706D52B786FF319
:102B080000032B7000236B6070BD636823B9BDE8B8
:102B180070400121FFF7E6BA0846FFF79EFA06461D
:102B28002046FFF79AFA012104462846FFF7DAFA09
:102B3800636883B1A3681B88DB0704D5324629463E
:102B48002846FFF757FFD4E9012101230846FFF77C
:102B5800CCF9606038B93046FFF7B8FA2046BDE8CE
:102B68007040FFF7B3BA324631463046FFF742FFAE
:102B7800DEE72DE9F04F0C4651688FB090460131E1
:102B880005460293FFF754FAD8F80420A8680132E2
:102B98005200002129F0CCFF2B7800266FF30003A8
:102BA8002B706E60D8F8041020460131FFF740FA08
:102BB80041462046FFF7C0FA029BA768D4F8049064
:102BC800D3E9013A0193AB6803935246019B494606
:102BD8003846FFF761FA002832D1039A6060012372
:102BE80013806B6023786168C3F3000200290CBF6F
:102BF800002202F0010262F30003029A237098F89F
:102C0800003012785340DB0717D56B682A78003BF1
:102C180018BF012363F300022A7071B14FF0FF312E
:102C28000BA8FFF7A8FA0BAA29462846FFF7DDFCF0
:102C3800029A21462046FFF7D8FC0FB0BDE8F08F76
:102C480001DA6E60CEE7019B03F10042013A4FEAD8
:102C5800420E3AF81230180406F1010153D5B3B206
:102C680009F1010007EB490B00210093C3F11003A0
:102C780027F81910BC4660600BF102090493CC4593
:102C880045D33AF81220009B02FA03F30493019B00
:102C9800012B0AD90AEB0E02009B32F8022CC3F171
:102CA8001001CA40049911430491019BC01A68603D
:102CB800039B00F10040013803EB400306930EF13B
:102CC80002030993AAF1020A63680593059A019B16
:102CD800934229D3009B02F1004B0BF1FF3B07EB1A
:102CE8004B0B0020C3F110065F4573D96FF000410C
:102CF8006B682BB103985A1830F81220002A74D048
:102D08006FF0004176E05B009BB20E46A3E7BCF88B
:102D18000060009B06FA03F31943049B2CF8021B7E
:102D280026FA03F189B2AAE7BBF800103BF8022C97
:102D3800049B42EA0142B2FBF3F2099BABEB0303AB
:102D4800CDE9073A00201E468646B3450ED8BBF8A3
:102D580000100844002838D1069B23F8022906935E
:102D6800059B5A1EABF1020B6260ADE7089BB6F8F3
:102D7800009033F8021F0893009B994041EA1E4EC9
:102D88001FFA8EF1514319FA80F91FFA81FC090CD8
:102D9800A9EB0C0CC1EB204126F802CB01EB2C402F
:102DA800D3E739F802CF009B0CFA03FC4CEA1E4E1D
:102DB800B6F800C011FA8EF1614426F8021B090C1E
:102DC800B345EED80844013AC4E70021079ED1462E
:102DD8008E46F5E7BBF80020009B42FA03F1014359
:102DE800B2402BF8021990B27EE7013B6B607FE797
:102DF800013B63606368002B3FF4F4AE5A1837F860
:102E08001220002AF4D0EDE6F0B51F464B6885B0D5
:102E180004460D4616464BB11378DA0706D47B688C
:102E2800012B0BD1BB681B88012B07D123786FF3CB
:102E3800000323700023636005B0F0BD0121204624
:102E4800FFF750F97368002BF6D02846FFF705F90D
:102E580005463046FFF701F9064601A8FFF75FF976
:102E68007368B3B1B3681B88DB070AD52A462146C5
:102E78002046FFF7BFFD3B462246214601A8FFF743
:102E880078FED6E9012101230846FFF72EF8706085
:102E980048B901A8FFF748F92846FFF717F930465F
:102EA800FFF714F9C8E72A4629462846FFF7A2FD86
:102EB8003B462A46294601A8FFF75BFED0E710B536
:102EC800D0E90121034601EB42020020914204D3DC
:102ED8001B78DB0748BF404210BD32F8024D44EA78
:102EE8000040F3E730B5D0E90124002304EB4202A7
:102EF800944206D30278D20748BF5B420B60012098
:102F080030BDB3F5004F04D232F8025D45EA034301
:102F1800EEE70020F4E72DE9F0470546D1B198180F
:102F2800D5E901840026A4F1020E4FF0010C3746C2
:102F380003EB0209B8F1000F0ED1B9B3C21A184653
:102F48002B7813F0010FBDE8F04714BFFF210021D3
:102F580029F0EEBD1846E3E73EF8024F103744EA81
:102F6800064695F800A0072F0AF0010A02DC08F1CE
:102F7800FF38DFE7B4B2BAF1000F06D0E4435CFAD9
:102F880084FC1FFA8CF4CCF3072CE4B249B100F1AD
:102F9800FF3A00F8014C53450BD0083F360A50461B
:102FA800DFE782460AF8014BCA45F5E713441A1AC7
:102FB800C6E7BDE8F0870000D0E901329FED0C0AB2
:102FC8009FED0C7A02EB43039A4205D30378DB07A3
:102FD80048BFB1EE400A704733F8021D07EE901A59
:102FE800F8EEE77AE0EE077AB0EE670AECE700BFA2
:102FF80000000000000080472DE9F84F44689DF864
:1030080028A00B9E8046894615469B469CB982B1EE
:10301800551E334615F8011F184639B93023037079
:10302800002300F8013F801BBDE8F88F03F8011B5F
:10303800F0E73046F2E764002046FDF7EFF9D8F8EC
:1030480008100746224629F02FFDABF13A0B31460E
:1030580032463819A0F1020C00236745644639D975
:103068003033392B144688BF5B4404F8013B3B4698
:1030780098429C4638D8BAF1000F0AD00123A4EB35
:10308800010CBCF1030F02BF941C82F801A0214679
:10309800F3B13846FDF7EAF95DB1284629F082FD1B
:1030A8002A18611E1346AB4229D8954288BF0020D2
:1030B800044498F80030DB0744BF2D2304F8013B93
:1030C8003346621E9A421FD800232370A01BABE729
:1030D8002246BFE7248844EA0343B3FBF9F42CF8FB
:1030E800024909FB1433B8E7BCF800C00233BCF14D
:1030F800000FBDD0BAF1000FEAD00023BFE713F8E4
:10310800017D01F8017FCEE71978107803F8010BEB
:1031180002F80119D6E7D0E9023293423DBF5A1CA2
:10312800826018784FF0FF307047036810B5044686
:1031380013B14068FDF79AF92046BDE81040FDF745
:1031480095B90000F8B5054610200C461F461646EE
:10315800FDF764F9054B8460C0E900743444C46029
:103168006B60034B2860AB60F8BD00BF1F310008DF
:103178003331000802690A2A10B5044635D1836A3A
:10318800013383620123A269E36263696261226F8A
:103198002361002A31D0616E8A423FBF501CA16E64
:1031A80020678A5C28BF0022A2613BB9E2692261DC
:1031B800226A6261626AA2616366236763690D2B92
:1031C80008D1A3690A229342626103D1D4E90103B9
:1031D8009847A061A369013306D163695A1C03D0DB
:1031E8000A2B1CBF0A23A36110BDC36A092A04BFA6
:1031F800073323F007030133C5E7D4E901039847F0
:10320800A061DBE70369272B2BD0222B29D0A3F160
:10321800620113291ED8174ACA40D2071AD5426933
:10322800272A1ED0222A1CD0722B1CD1662A06D12E
:103238008269272A15D0222A13D0722B15D1436907
:10324800622B0CD1806927280BD0A0F122035842A9
:1032580058417047662BF0D14269722AE8D00020A5
:10326800704701207047662BF6D0622BF7D143696F
:10327800722BE6E71100090038B504460D462069AF
:10328800431C02D10025284638BD0A2807D115B1AC
:10329800636B002BF7D02046FFF76CFFEFE7FEF7D4
:1032A8008DFD0028F7D12369232B08D12046FFF78D
:1032B80061FF23695A1CE2D00A2BF7D1DFE75C2BA8
:1032C800E0D163690A2BDDD12046FFF753FFE2E71F
:1032D8002DE9F04F436E85B00446A3B1036F93B94F
:1032E80029216030FEF704F92369E36163692362E9
:1032F800A3696362A36E1A7822615A7862619B7827
:10330800A361032323670023636501212046FFF798
:10331800B3FF266BA36A6364002EE36AA36407DA2B
:10332800082384F84C300136266305B0BDE8F08FD9
:1033380004D0072384F84C30013EF5E7002837D045
:1033480031462046FFF798FF062384F84C30D4E92D
:103358000F306FF000429918E56A30F81110013DFE
:103368008D42E2D019D9A16B8B4207D308314900AD
:10337800FDF76FF8A36B20640833A363D4E90F3219
:10338800591CE16322F81350236B01332363CCE704
:10339800013BE363236B013B2363E36B991830F82C
:1033A80011108D42F4D3C0D0022384F84C30BCE70E
:1033B80025696F1C02D184F84C00B6E72046FFF758
:1033C80021FF8146002800F0D18184F84C602369F0
:1033D800752B1DD0622B07D16369722B4FF0000546
:1033E80018D1C846022717E0722B06D16369622BF1
:1033F80046D0662B46D10523D7E7662B45D16369AE
:10340800722BF8D04D464FF0000801270C2304E03A
:103418000025F8E7A84601270D2394F84C20002A38
:1034280037D184F84C303FB12046FFF7A3FE022F76
:1034380002D12046FFF79EFE2369222B14BF2723C3
:10344800222320460093FFF795FE2369009A9342B2
:1034580022D163699A421FD12046FFF78BFE20468E
:10346800FFF788FE4FF0030A25B1AC4904F160006C
:10347800FEF781F8002304F1500704F1600B1CE00B
:103488000025AEE70025C846BFE700253746A84611
:10349800BCE79A42C7D048E74FF0010AE4E7009931
:1034A800914236D1013338460193FEF728F8019B43
:1034B80001932046FFF75EFE019B2269511C00F034
:1034C8004F81BAF1010F02D10A2A00F04981534510
:1034D800E5D3194604F15000FEF767F801212046AC
:1034E800FFF7CAFE2046FFF78DFE00287FF46FAF76
:1034F8001BE72046FFF73EFE21697B2920D138468D
:10350800FDF7F6FF2046FFF735FE7B213846FDF72D
:10351800EFFF21690DB17B29EBD05C2940F01B81BD
:1035280020460191FFF726FE23690199B8F1000FA3
:103538004DD001933846FDF7E2FF019B1946E2E0C2
:1035480028215846FDF7D4FF636E00222169481CE4
:103558000FD032BB3A290CD07D290AD0212920D19D
:1035680060697238012821D8A0693A2801D07D28DD
:103578001CD1D4E91921881810F8010C3D2807D16D
:10358800D21A19443846FDF70DFF636E013B636696
:1035980058462921FDF7ACFF2C215846FDF7A8FF16
:1035A800B3E721F020005B280CD10132C9B258469C
:1035B800CDE90132FDF79CFF2046FFF7DBFDDDE991
:1035C8000132C3E75D2808BF02F1FF32EEE7782B2E
:1035D80006D85B2B0BD8222B74D053D80A2B4FD08C
:1035E800A3F13001072900F2AF800323A5E0A3F17E
:1035F8005C021C2AF4D801A151F822F0CD3600084B
:10360800E9350008E9350008E9350008E93500081A
:1036180079360008A5360008E9350008E9350008BC
:10362800E9350008B5360008E9350008E93500082D
:10363800E9350008E9350008E9350008E9350008EA
:10364800E9350008AD360008E9350008E935000815
:10365800E9350008A1360008E9350008A936000850
:10366800B9360008B1360008E935000821370008E6
:10367800072194F84C300C2B69D13846FDF73FFFF1
:10368800002315E7552B13D0AAD8272B1AD04E2B79
:10369800A6D123480AF0E2FC0D21EAE70821E8E771
:1036A8000921E6E70A21E4E70B21E2E70C21E0E73C
:1036B80094F84C200D2A07D15C2138460193FDF778
:1036C8001EFF019B1946D4E7752B0CBF0423082362
:1036D800002116E0204603930191FFF74BFD226974
:1036E80002921046FEF788FB002800F050810199ED
:1036F800029A090110460191FEF7BEFB0199039B4E
:103708000144013BE6D2481CBAD0B1F5881FB0D3BA
:10371800012384F84C30B3E70223D9E79363040804
:103728009C6304082046CDE90113FFF723FD2269B5
:103738000199029B303A02EBC1016269303A072ACB
:10374800E1D8013BEED1DEE701935C21F2E6FF29E7
:10375800DED80D2BDCD1C9B23846FDF7C9FE8FE79C
:1037680053453CBF032284F84C20B2E62846FEF7B6
:103778002FFB054620691DB95F2801D07F283ED957
:10378800092384F84C3004F15005C1B22846FDF7EE
:10379800AFFE2046FFF7EEFC2069421C1BD12846ED
:1037A800FDF797FE7C4F0646002557F8041B304668
:1037B80029F006FA00281CD10F35EDB2122D84F835
:1037C8004C507FF4B2AD754BD3F84C32002B0CBF84
:1037D80011230F23E9E5FEF7FBFA40B920695F28BA
:1037E80005D07F2803D8FEF7FDFA0028D7D0217C22
:1037F800CCE7FFF69AAD0135242DD6D195E5FEF735
:10380800F1FA68B321692E2935D10B2384F84C309D
:1038180004F150063046FDF772FE2046FFF7AAFC79
:103828000B272069431C3FF480AD002D39D120F0CF
:103838002003452B35D16521304684F84C70FDF7BF
:103848005EFE2046FFF796FC21692B2901D02D2921
:10385800E7D13046FDF753FE2046FFF78BFCE0E743
:1038680023692E2B04D16069FEF7BCFA0028C9D160
:103878004B4D002635E00A23302984F84C30C7D157
:10388800656945F02005A5F16203162B9FBF454DDC
:10389800DD40ED4305F0010588BF012585F00105F0
:1038A800B6E7FEF795FA28B121692E290DD184F8DB
:1038B8004C70CEE72069FEF795FA0028F4D1236909
:1038C8002E2BF1D05F2BC7D02FE521F020034A2BF8
:1038D800BFD1ECE7652F01D0632F00D10135013648
:1038E80001352F7817B12369BB42F3D12046FFF782
:1038F80041FC0FB9012358E5212F07D123693D2B3E
:10390800F8D12046FFF736FC3A234EE52E2F0FD18B
:1039180023692E2B02D163692E2B01D05D2344E548
:103928002046FFF727FC2046FFF724FC0E233CE542
:103938000335334615F8027C632F0FD0652F0DD061
:10394800194AD35C84F84C3003F0FD02552A01D0A3
:10395800592B14D1636B01336363E6E415F8012C2A
:103968002169914206F1010607D12046FFF702FCC2
:103978003346652FE4D00235DCE7632FFAE7562B90
:1039880002D0582A7FF4D1AC636B013BE4E70123F2
:1039980084F84C3001466CE6646404089800002002
:1039A8004E63040801204000356404087FB50646CC
:1039B80001AD742085E80E00FCF730FD044603468F
:1039C80095E8070043F8046B83E8070001236FF0CC
:1039D80001020025C4E90A320A22C4E90E23C4E917
:1039E8000C551420FCF71AFD2021206404F1500026
:1039F800FDF701FD294604F16000FDF7FCFC236C8E
:103A0800256720461D80C4E905552561FFF7B2FBEF
:103A18002046FFF7AFFB2046FFF7ACFB2046FFF739
:103A280057FCA36C012B06D094F84C30062B1CBF16
:103A3800072384F84C30204604B070BD30B585B0FB
:103A480001AC05462046FFF77DFB94E80E002846AA
:103A5800FFF7ACFF05B030BD30B585B001AD044609
:103A68000146284620F05EF995E80E002046FFF74B
:103A78009DFF05B030BD10B5044690B1C3684068DD
:103A8800984704F15000FDF7DFFC04F16000FDF7F2
:103A9800DBFC206CFCF7EAFC2046BDE81040FCF794
:103AA800E5BC10BDD0E90432013B036152F82300A4
:103AB80070470369C9431944436953F821007047A3
:103AC800F8B5446A06460D46BCB1D4E900132B4448
:103AD8008B4223D905F10803002219442046FCF73C
:103AE800C3FC0246B8B9616820460831FCF7BCFC43
:103AF80063682360336A63603462802D2F4638BF61
:103B0800802707F10800FCF789FC00230760436061
:103B18000446706202E023682B4423606068054411
:103B2800656008342044F8BD38B50D460C211446AC
:103B3800FFF7C6FF4FF49D72C0E90124056038BD48
:103B480038B5D0E903329A4204460D4608D31033FB
:103B580099004069FCF77DFCE36860611033E3601D
:103B6800D4E90432591C216142F8235038BDF8B514
:103B780004461D46D0E9000383420F46164608D383
:103B88001030C100A068FCF764FC2368A060103303
:103B98002360D4E90103421C626053F8301067F3D4
:103BA800170143F8301003EBC002D6705560F8BD1A
:103BB80010B48469CAB20023616C5DF8044BFFF746
:103BC800D6BF10F001021CD110F003030CD000F096
:103BD8000F03062B15D00A2B11D100090E38032824
:103BE8008CBF00200120704770B102793A2A08D0B2
:103BF8002D2A08D18068B0FA80F040097047104635
:103C0800704701207047184670470000C20702D568
:103C180040F001007047830710D0030900F00F003F
:103C2800062803D1D80040F002007047A3F10F0026
:103C3800022809D8064B53F82000704730B10379A1
:103C48003A2B03D180687047024870470248704792
:103C5800686504081C8A0408F890040838B5054605
:103C68000C46FFF7AEFF38B12846FFF7CFFF0BF041
:103C7800DDF9031B5842584138BD2DE9F04105468E
:103C88000F461446164696B93146204612F064FC93
:103C9800014600F10808ACB90A4628463946FFF73C
:103CA80043FF01462846FFF74BFF012008E0013E8D
:103CB80031462846FFF7FDFEFFF783FF0028E2D1D3
:103CC800BDE8F0812846FFF7EDFE0646FFF79EFFA8
:103CD800013C48F82400002EDDD0B307DBD1686A28
:103CE80000F108039E42D6D3426813449E42D2D2C2
:103CF80073681B0A0233A2EB83034360CBE700001F
:103D0800F7B5866996F84C20092A05460F461FD153
:103D1800D6E91510FDF7B0F9902F04460ED1C10071
:103D2800002241F0020105F128000AF047FD28B100
:103D38004268D30720D542F0010002E0200140F09C
:103D480002000146284603B0BDE8F040FFF7F8BE80
:103D58000A2A07D10022D6E91510334608F0B8FA26
:103D68000246E6E70B2A0CD10096D6E91510002387
:103D7800012208F02BFB0246716C2846FFF7D4FE9F
:103D8800DFE70C2A13D1D6E915100A2906D8FDF762
:103D980073F930B1000140F00600D2E7FDF71EF9D3
:103DA800F7E7D6E91521074810F0BCFCE3E70D2A30
:103DB80004D1D6E9151010F0A1FDDCE7120142F09C
:103DC8000A00BEE7AC8F040810F0010204D040F0EE
:103DD8000100086001207047A8B110F003030FD15B
:103DE80002793A2A0ED183680B6013F00100F1D1F1
:103DF8009A0708D11868044BC31A584258417047AB
:103E08001046704718467047F88204080021FFF7EB
:103E180025BF0121FFF722BF2DE9F04F2DED028BC1
:103E28001D462D2A00F1280308EE103A85B00446F5
:103E3800884616460DD10021FFF73BFEC8B187071B
:103E480002D10379922B14D005B0BDEC028BBDE8EA
:103E5800F08F922A20D10021FFF72BFE014640B1B6
:103E6800880706D10B79952B0AD12046FFF71AFE51
:103E7800013DA6F11E03012B6FD8A9462F461AE073
:103E8800962BF6D12046FFF70DFE4B6823F0FF0373
:103E980043F092034B60D7E7962A08BF0135E8E75D
:103EA8001E2E4DD1FFF7B5FFC8B95046FFF7AEFF3C
:103EB800002808BF5F4607F1FF3BB9F1000F0ED09D
:103EC80009F1FF3949462046FFF7F3FD2269616988
:103ED800D21B824641F82200B9F1000FE0D100213F
:103EE800594535D16D1A012DAED0A6F12303022B09
:103EF80002D92A2E40F08280691E2046FFF7D9FD9C
:103F080001A9FFF761FF002800F09281232E42D01B
:103F1800242E43D0252E0CBF4FF018094FF022094C
:103F2800AF1E002F3DDA002D40F07781019AD307AC
:103F380040F1788142F001012046FFF701FE83E756
:103F4800FFF764FF0028CAD15046FFF762FFAFE7CA
:103F58002046FFF7A7FD0131C2E7202EC5D1002179
:103F68002046FFF7A6FD0746FFF750FF80B9384601
:103F7800FFF74FFF0028B8D0FA212046FFF792FD3F
:103F8800204605B0BDEC028BBDE8F04FFFF7D8BD69
:103F98004FF48D71F1E74FF01609C1E74FF017099B
:103FA800BEE739462046FFF784FD02A9FFF70CFF5C
:103FB80078B1B9F1220F07D0DDE90112484609F0BE
:103FC80063FE013F0190ACE702980EF089F80028E3
:103FD800F2DA962E40F03981D4E9012303EBC203CB
:103FE80013F8153C2D2B38D12A4641462046FFF7B9
:103FF80044FE90B36368023B636025E7A6F126039D
:10400800022B45D8691E2046FFF753FD01A9FFF78B
:10401800DBFE002800F03681A5F10209B9F1000F96
:1040280081DD09F1FF312046FFF743FD02A9FFF7C3
:10403800CBFE90B149462046FFF73BFDC0F3071081
:1040480043280AD0452808D02538C7B202980EF070
:1040580047F81A2F0FD8002811DAA91C8900204622
:10406800FFF72EFD46EA05230746C0F800804360A7
:1040780000F10801FAE01E2F01D90028EDD0DDE992
:104088000112384609F000FEA9F102090190C5E7BE
:10409800292E19D100212046FFF70BFD01A9FFF7B2
:1040A80093FE0028D9D001212046FFF702FDC0F376
:1040B8000710342818BF4038019914BFC0B2022035
:1040C80009F042F801902EE7052E67D1002120461D
:1040D800FFF7EFFC07460028BFD010F0030B04D110
:1040E800436803F0FE03562BB7D001212046FFF7A3
:1040F800E0FC00F00F03022BAFD1BBF1000FACD1F5
:104108003B792C2BA9D1BB6803F00F02022AA4D15A
:104118001B09482BA1D1FB68002B9ED09A079CD184
:104128001A79302A99D1D3F808A04FEA10195046C5
:10413800FFF747FD68B9544954480CF025FEA169BA
:104148003A68096805465B460CF0F4FE2846FCF719
:104158003BF95046FFF75AFD4FEAC90101220746CD
:1041680041F0020118EE100A0AF028FB47604846A1
:10417800FDF749F802785F2A204608D1FFF792FC3C
:1041880000252046FFF78EFCA846082671E6FFF7B3
:1041980089FC51462046FFF7D3FC5EE72C2E47D119
:1041A80001212046FFF785FC00F00F03022B024691
:1041B8007FF453AF00212046FFF77BFC00283FF433
:1041C8004CAF87077FF449AF0379322B7FF445AFB3
:1041D8001109C90087682E48002241F002010AF03F
:1041E800EDFA00283FF439AF406802AA390908F00F
:1041F800C3FE029B002B3FF430AFD90707D49A07C0
:104208007FF42BAF1968234A91427FF426AF039AB3
:10421800002A7FF422AF019385E62046FFF742FC8F
:10422800013D80E629462046FFF77EFC014683E6ED
:10423800922E7FF4CEAED4E9012303EBC20313F828
:10424800053C2D2B7FF409AF01E0062E18D12A4634
:1042580041462046FFF711FD00287FF4F5ADFCE646
:104268002046FFF71FFC013D41F82500002DF7D13E
:10427800962E03D139462046FFF762FC39467FE681
:10428800362EE4D0332EDDE7F4640408107F0408EA
:1042980074650408F88204080346006830B508B954
:1042A800106030BD840702D013600120F9E744682C
:1042B800E5B28D42F8D108301060200AF1E700001D
:1042C8002DE9F04FAF4B97B00024CDE907310190AD
:1042D8000D4605A8AC490092CDE90544FCF734F831
:1042E80040234FF40070CDE90934FCF797F82023F8
:1042F8000B908020CDE90C34FCF790F82146CDE9ED
:104308000E0513A8CDE911440AF022FA009B002BF0
:1043180049D0022B0CBF3F222246696CDFF880A2ED
:10432800002309A8FFF723FC00270A9C002C00F0B3
:104338006681013C0B99954E0A9401EBC40351F830
:104348003410DA785B68C1F31709914911F802B0A3
:104358009049895C632A88BF41F4807106EB410665
:104368000BF0300110290BF00F081ED020294BD07C
:10437800002F00F01781B8F1020F40F0F580012BF3
:1043880018D000211BF0010F03F1FF3006D074880C
:104398000AEA0404B4F5805F08BF5808012800D170
:1043A80061B10346AEE03D22B7E72BB906EB430601
:1043B800984505D80127B8E7002FF7D10027B4E7BB
:1043C800374636F8021B01EA0A00B0F5805F0DD1C6
:1043D80095F84C00C1F30B01884213D109A8114686
:1043E800FFF78EFC2846FEF773FFE7E701334345E6
:1043F80003D2494609A8FFF7BAFB398809A8FFF78D
:10440800D7FBDBE70133D3E78FB103F10041013973
:1044180036F811100AEA0101B1F5405F1DD10021FB
:1044280009A8CDE90232FFF78BFBDDE9023206EB82
:104438004304984525D8009B002B48D1002406EB5F
:1044480048082746B04562D1012F40F081801BF013
:10445800400F7DD00026314674E0012BAAD995F88B
:104468004C30072B40F0F9804B494C480CF08CFC41
:104478006A6C2968044600230CF05CFD2046FBF7B3
:10448800A3FF274634F8021B01EA0A00B0F5805F53
:104498001BD195F84C00C9B2884212D1092807D11E
:1044A800114609A803930292FFF72AFCDDE90223CB
:1044B8002846CDE90232FEF70BFF029B039A01332F
:1044C800B7E7002B3FF476AFC9E7013391E7052A38
:1044D800B4D1002109A8FFF7ECFA0028AED10121D8
:1044E80009A8FFF7E6FA830700F0C58000F00F007F
:1044F8000228A3D009A8FFF7D5FA09A8FFF7D2FA2E
:1045080000230822494609A8FFF786FC56E738F831
:10451800023D03EA0A01B1F5805F05D1DBB2092B40
:1045280090D1013401378DE7214609A8FFF7C1FA78
:1045380000B10137013485E7FFF7B4FA01360028E6
:1045480018BF0146A64209A8F6D1FFF7F9FA35E7E0
:104558001BF0800F06D0002109A80292FFF7F0FA9D
:10456800029A01342346CDE7012B3FF423AF13F021
:1045780001013FF407AFB8F1030F7FF470AF0121D9
:1045880000E700BF7F3A00087DCE0008586604089F
:10459800A8650408E0690408006504083C7D04086F
:1045A80000F0FFFF08EA030101F0010136F81140AD
:1045B80004EA0A00B0F5805F17D195F84C00C4F3FF
:1045C8000B04A04203F101040DD129B9114609A831
:1045D8000292FFF795FB029A02922846FEF778FEB0
:1045E800029A2346DEE72346C5E6494609A8013371
:1045F800FFF7BDFA214609A8FFF7DAFA95E613A8EE
:104608000AF0BAF8129850B1416822460831FBF70F
:104618002BFF129B5A681A60119A5A60119395F8E9
:104628004C30002B7FF41BAF0D9B002B3FF417AFD2
:104638000E9B0B981B681093FBF718FF0E98FBF75F
:1046480015FF0120FBF78AFEDDE91001019B83E8D5
:104658000300184617B0BDE8F08F022B01D10A49B4
:1046680003E7042B02D109490948FFE6052B0CBFD3
:1046780008490949F8E700283FF4E0AE03793A2BE6
:104688003FF438AFDAE600BF12650408396504085C
:10469800107F04084C6504086165040810B540687B
:1046A80000B910BD4468FBF7E1FE2046F8E70000BA
:1046B800F8B5054630200E461746FBF7C8FE072D0D
:1046C80004460570C66001D0012D0FD1B368C3F34D
:1046D8000F13A38208F038F8042320612783E384AA
:1046E8002020FBF79BFEE0622046F8BD014B5B5D96
:1046F800EFE700BF906A040810B50446C06AFBF7EC
:10470800B5FE2046BDE81040FBF7B0BE30B5058DBC
:1047180004460022954201D8002030BDE36A03EB2D
:10472800C20043688B42F8D00132F3E770B5044603
:104738000D461646FFF7EAFFC0B9E38C228D9A4270
:1047480008D30633D900E06AFBF783FEE38CE06206
:104758000633E384238DE26A591C02EBC3002185EA
:1047680002F83360002343704380456070BD034600
:1047780018465B68002BFBD1FFF7C8BFF8B5446843
:104788000E462CB9F8BD042BFCD105230370F9E7BC
:10479800254628466D68002DF4D077683946FFF71E
:1047A800B5FF0028F5D00378043B022BEAD806258C
:1047B8003570002239462046FFF7B8FF0378002BF2
:1047C800E1D105706468F4E7036A1B8B012B1EBFF7
:1047D800C3685B18C3607047836A10B504469B6F53
:1047E800406A9847238B226A0133918C9BB2994285
:1047F800238338BF938410BD038B10B5013B03831B
:10480800836A0446D3F88030406A984720460121DD
:10481800BDE81040FFF7D8BFF7B51E4659B111F0F3
:10482800030511D14F68FCB294420DD13F0A01F142
:104838000804BD4201DB03B0F0BD54F8041B01902D
:104848000135B0470198F4E7334603B0BDE8F040BE
:1048580018472DE9F04F2DED028B044608EE102A7B
:1048680083B00D4698461BB1CB8A43F00803CB8230
:1048780018EE103AEB83236ADA8A42F03002DA82C1
:104888001B78002B4CD1A36A606AD3F8B06018EE8D
:10489800102A43462946B44603B0BDEC028BBDE856
:1048A800F04F6047DB6A03EBC60B13F83630053B65
:1048B800012B1DD84FF0000917E0EB6A03EBC90282
:1048C80013F83930062B0ED1DBF8041053689942DF
:1048D80009D1A36ABBF802201B69606A1F4600233E
:1048E800B8470AF1010A09F101092B8D4B45E4DCAF
:1048F8000136236A1A8DB242D4DCBAF1000FC2D055
:10490800A36ACDF80080D3F8B460606A18EE103A54
:1049180052462946B04703B0BDEC028BBDE8F08F84
:104928000026B246E5E70000F8B504460E461146F3
:104938001A46002385780769837003610E4BFFF7D9
:104948006BFF6368BBB9618A51B1228A42B9A36A15
:10495800606AD3F89C309847A36A606A1B6C9847D2
:10496800238A628A31462046FFF773FF003D18BF4D
:104978000125A5702761F8BD11530008024B89680D
:104988009D22FFF749BF00BFD96F0008024B896815
:104998006B22FFF741BF00BFE56C0008836A10B5C2
:1049A8000446D3F88430406A00219847A36A606AB5
:1049B8001B6B10219847A36A606AD3F8C83001219D
:1049C800984720460321BDE81040FFF7FDBE38B5E3
:1049D800836A04465B6C406A00229847A36A606A4F
:1049E800D3F8BC5000231A461946A8472046BDE80C
:1049F8003840FFF7D3BF836A89681B6D406A00227D
:104A080009091847836A8968DB6B406A184710B53B
:104A18000446084611461A46FFF74AFE236A4360D1
:104A280000238360E3690BB9E06110BD1A469B68F7
:104A3800002BFBD19060F8E770B54378012B054651
:104A48000C4606D1036A0A461B8B0221FFF7DFFFDB
:104A58002061A268216928464C23BDE87040FFF711
:104A680063BF70B513464278012A05460C4604D147
:104A78000A460721FFF7CBFFA061A669E26828462E
:104A880046233146FFF750FFB08A70BD2DE9F04F3D
:104A980085B0054600AF0C4611B90121116015E03B
:104AA80011F003081BD10B79682B07D1CB681B09C0
:104AB80013608C68002CF0D04FF0010804F00F034D
:104AC800022B0FD12109B8F1000FE7D0AB6A686A51
:104AD800DB6A002298471437BD46BDE8F08F4FF0D7
:104AE8000008EBE7B8F1000F02D1A3681B091360B7
:104AF800666804F1080A360A06F1FF3BD1460AEB5C
:104B0800860659F8040B0009FCF772FBB14583448B
:104B1800F7D10BF1070323F00703ADEB030D6B4649
:104B280099465AF8040B3B6007F10C010009FCF7A1
:104B380076FBFA687A600146484627F0B5FF7A683E
:104B48003B68B245914418D159461846FCF794FA87
:104B5800AB6A0146DB6A686A00229847B8F1000F21
:104B6800B9D00C34A642B6D054F8041BAB6A686AB4
:104B78001B6D002209099847F4E74FF02E0209F847
:104B8800012BCEE731B1826801F00303134304BF60
:104B98000B6883607047000038B543680D460446CB
:104BA80011464BB905480CF0EFF8294660602046DD
:104BB800BDE83840FFF7E6BF38BD00BF107F0408E6
:104BC800014AFFF7E9BF00BF976A04080B79092B70
:104BD80070B50CBF858AC58A4FF6FF739D4204469F
:104BE80002D1064AFFF7D8FF218B628BA36A606A5D
:104BF8005B6F8A1A2946BDE870401847A46A040802
:104C080070B51446054612780E4683B132B1032AB0
:104C180004D0104ABDE87040FFF7BEBF03262670D7
:104C28006168286AFFF7A3FD00B1067070BD62B91C
:104C380001232370006A2146FFF7A0FD2378012B8A
:104C4800F4D1054A31462846E4E7062AEED0034A5D
:104C5800E0E700BFBD6A0408CA6A0408D76A040806
:104C680013B50446B9B101F00F03022B0FD10A099D
:104C78001046019209F0D4FB0028019A05DA074989
:104C880007480CF017F96060002002B010BD054A13
:104C9800FFF782FFF8E70846F7E700BFDE6A040877
:104CA800C47F0408E36A040810B404460B4662781B
:104CB800006A012A03D15DF8044BFFF737BDA16AEA
:104CC80002461031606A5DF8044B02F04BBE0000EA
:104CD80070B505460C4600292ED0CA0706D5836A4A
:104CE8005B6B4910686ABDE8704018478B0717D09E
:104CF80004F00F04022C4FEA11110AD0062C0CD034
:104D0800062919D0836A406A1B6BBDE87040C9B296
:104D18001847BDE87040FFF7C7BF836A9B6BE1E7A0
:104D2800836A0968DB68406A98472279034B214601
:104D380053F822302846D6E770BD00BFA46C04089B
:104D48002DE9F74F05460C4616461F462046FFF745
:104D58005DF840B16EB9AB6A9B6E3946686A03B0BC
:104D6800BDE8F04F18472046FFF753F820B1002E52
:104D7800F1D103B0BDE8F08F002C48D0A30746D18D
:104D880063684FEA132BDBB21E2B18D1DEB108344F
:104D980004EB8B0BA345ECD054F8041B3B4632467E
:104DA8002846FFF7CDFFF5E75AF8041B0192434662
:104DB8002846FFF7C5FF09F10109019A11E01F2BE9
:104DC8001FD1002EE3D0D5F80C8008F10103EB6069
:104DD8000BF1FF3304F1080A4FF00009009386F045
:104DE8000102009B4B45DFDC0BF101013B4654F807
:104DF800211032462846FFF7A3FFAB6A41469B6A5B
:104E0800ACE7202B03D1A46886F001069EE7214673
:104E18002846FFF75DFFAB6A686ADB6E3A463146A3
:104E280003B0BDE8F04F184738B5026A1278072A70
:104E380004460B4606D0022A04D0BDE83840144A7E
:104E4800FFF7AABE9D6885B9A36A606A1B6B10212B
:104E58009847A36A606AD3F8C8300021984720466B
:104E68000121BDE83840FFF7AFBCAB070BD12B7968
:104E7800AF2B08D12046A968FFF72AFF2046BDE8D6
:104E88003840FFF78BBD29462046FFF721FFE0E7B2
:104E9800F36A040870B54378CE68012B04461546BA
:104EA80006D1036A0A461B8B2946FFF7B0FD7061DD
:104EB800002371691A462046FFF7CBFCF1682046AB
:104EC800FFF706FF062D05D1A36A606AD3F8843080
:104ED80000219847A36A606AD3F8B8500023AC460B
:104EE8001A46BDE870400121604738B50C460546B2
:104EF800C968FFF7EDFEA1682846BDE83840FFF70E
:104F0800E7BE0B79342B70B504460D4610D189687D
:104F1800FFF7DEFEED68AD6885B9A36A606A1B6BB2
:104F280010219847A36A0422D3F89C3002211AE082
:104F3800836A406A1B6B10219847ECE7AB071FD1C7
:104F48002B799A2B13D1A36A606A1B6B102198479F
:104F5800A9680029E6D02046FFF7BAFEA36AD3F86D
:104F68009C3004220321606ABDE8704018479B2BDF
:104F780006D1A9682046FFF7ABFEEB689968E8E719
:104F880029462046FFF7A4FECCE710B504468968F9
:104F9800FFF79EFEA36A606ADB6CBDE81040002143
:104FA800184700002DE9F7438D68044616465DB999
:104FB800002A75D0836AD3F89C3002222946606A99
:104FC80003B0BDE8F043184715F0030740F08A80A6
:104FD8002B79372B13D132B1836A406AD3F89C30CE
:104FE80002220121984720462946FFF771FEA36A4D
:104FF800606AD3F8A03003B0BDE8F04318479F2B90
:1050080070D1EB681A79A12A5AD1A22101AA03F119
:105018000800FFF741F9A968804621B38B0722D120
:105028000B79372B1FD136B1A36A411CD3F89C30BA
:10503800606A02229847A9682046FFF749FEA36ADA
:10504800606AD3F8A03098474FF00109474510D15E
:10505800B9F1000F24D1A36A606AD3F89C30032207
:10506800791C98471CE02046FFF732FE4FF00009F4
:10507800ECE7019B53F82710A9B18E0713D10E79DD
:10508800A6F13700464246412046FFF721FEB9F116
:10509800000F11D04EB9184A29462046FFF77CFD6B
:1050A80003B0BDE8F0830026EEE7A36A606AD3F890
:1050B800A03098470137C9E7002EFBD00F4AEBE72D
:1050C800AB685BB19A0709D11B79372B06D104224B
:1050D800294603B0BDE8F043FFF7DCBE05222946A8
:1050E8002046F6E729462046FFF7F2FDA36A032289
:1050F800D3F89C30012162E7FE6A04080C6B0408AF
:105108000122FFF74FBF70B50D46C9680446FFF787
:10511800DFFDA968A36A606AD3F89430C1F3071168
:10512800342918BF4039BDE8704014BFC9B2022104
:105138001847F8B54F680C4689680546FFF7C8FD5B
:105148003F0A0C3400260236B74204F1080400DC9A
:10515800F8BD54F8041C2846FFF7BAFD54F8081C9B
:10516800AB6A686AD3F8983009092539C9B29847F3
:10517800E9E72DE9F0414E680C4689680546FFF7D6
:10518800A7FDA6F10D085FFA88F8360A0C34012746
:10519800B74201DBBDE8F08154F8041B2846FFF74D
:1051A80097FDAB6A686AD3F898304146984701374B
:1051B800EEE72DE9F0414E6804460D46360A896847
:1051C800FFF786FD032E83BFD4F80C8008F1010396
:1051D800E3604FF0000801277B1C9E4222DC032E6F
:1051E80055DDE568606A6B1CE360A36A29469B6E1F
:1051F8009847A36A606A9B6A41469847A36A606AAF
:105208009B6801219847A36A606A1B6E9847A36A46
:10521800606ADB6D9847A36A606A9B6A2946BDE8A5
:10522800F0411847296920460237FFF751FDB74278
:1052380007DAA36A606A5B6D9847A36A606A5B6E67
:105248009847E968A36A606AD3F8983001F00F02BA
:105258000A2A11D1C1F3071126291ABF3539C9B253
:1052680006219847B74205DAA36A606A1B6F42466F
:10527800002198470835AFE70A79852A01D13221FC
:10528800EFE78A680AB90721EBE73321E9E7BDE8C8
:10529800F08110B504468968FFF71AFDA36A606AB1
:1052A800D3F89430BDE81040032118472DE9F047A2
:1052B8004E68D0F80C805FFA86F9A9F11E03D3F185
:1052C800000949EB030908F101030446C360360AE3
:1052D80001F108050027B74206DBA36A606A9B6AEA
:1052E8004146BDE8F047184755F8041B20460137EA
:1052F800FFF7EEFCB742F0DAA36A606A1B6F42461A
:1053080049469847E7E7000001F00F03022B70B504
:1053180004460FD00B79492B01D04F2B02D1012322
:10532800A37070BD4A2BFCD0502BFAD0482B0DD15E
:105338000D696DB9A378002BF3D1638A002BF0D0E7
:1053480020461D4ABDE87040FFF726BCCD68F0E74F
:10535800A37843B3238A8E6801339BB2012B23823F
:105368000ED1618AD4E90903D1B1D3F89C30002267
:105378009847A36A606AD3F89C30022200219847B4
:1053880029462046FFF7A4FCA36A606A9B6B310993
:105398009847A36A606AD3F8A030BDE87040184700
:1053A8001B6C9847E5E7638A0133638229462046E8
:1053B800BDE87040FFF78CBC176B04082DE9F0417D
:1053C800C568D1F80C800E46AB1C04460022D8F8FC
:1053D8000810C3602B46FFF7B3FCB1682046FFF7FF
:1053E80077FCA36A606A9B6E6F1C39469847A36A6C
:1053F800606A9B6A29469847A36A606A9B684FF06F
:10540800FF319847D8F80C102046FFF761FCA36AD3
:10541800606A9B6A3946BDE8F04118472DE9F047B4
:10542800C668D0F814A0B0F81A908682B31CC3607E
:1054380006F10108038BA0F81680044643838868A8
:105448000D46FEF7E3FCF8B9E768A8687B1CE36043
:10545800FEF7DFFC20B9A36A606A9B6E4146984755
:10546800A36A606A9B6A39469847E9682046FFF74D
:105478002FFCA36A606A9B6A41469847A9683B4625
:1054880001222046FFF75CFC2969C4F814A02046D5
:10549800A4F81A90FFF71CFCA36A606A9B6A31465D
:1054A800BDE8F04718472DE9F347C668731CC36089
:1054B800044688680D46FEF7A9FC0246E8B9E76885
:1054C800A9687B1CE36020463B46FFF739FC204671
:1054D800E968FFF7FDFBA868FEF79BFCD8B92B69C4
:1054E8000BB96B6923B1A36A606A9B6E3146984712
:1054F800A36A606A9B6A3946984701AA712105F137
:105508001000FEF7C9FE002781464F450BD1696997
:105518002046FFF7DDFBA36A606A9B6A314698471D
:1055280002B0BDE8F087019B53F82780D8F808003F
:10553800FEF76CFC0246F8B9D4F80CA0D8F80810AD
:105548000AF10103E36020465346FFF7F9FB2046C2
:10555800D8F80C10FFF7BCFBD8F80800FEF759FC88
:105568000028D8D1A36A606A9B6E31469847A36A1F
:10557800606A9B6A514698470137C6E770B58D68DF
:1055880004463DB9836AD3F8C4302946606ABDE849
:1055980070401847AB070ED12B795E2B0BD1A96849
:1055A800FFF796FBE9682046FFF792FBA36A022102
:1055B800D3F8C430EAE729462046FFF789FBA36AF7
:1055C8000121D3F8C430E1E710B504468968FFF734
:1055D8007FFBA36A606ADB6DBDE8104018472DE9C0
:1055E800F0414E6801F10804360A054604EB8607C7
:1055F800BC4208D1AB6A686AD3F89C3031460022B5
:10560800BDE8F041184754F8041B2846FFF760FB33
:10561800EEE7896810B4034641B9826A406AD2F855
:105628009C400A4623465DF8044B18474A68120A0C
:10563800022A0BD1CA684AB1940707D11279AC2A59
:1056480004D15DF8044B0622FFF724BC5DF8044B37
:105658001846FFF7C4BF4B682DE9F04105460E46D2
:105668001F0A01F108080024BC4201DBBDE8F081F3
:1056780058F8041B2846FFF72BFB6B683BB1023434
:10568800284656F82410BDE8F041FFF77BBA0134EC
:10569800EAE710B50446FFF7DEFFA36A606AD3F8AD
:1056A8009830BDE810402221184770B58D6804462F
:1056B80045B9836AD3F89C3001222946606ABDE85F
:1056C80070401847A9071ED16B68DAB2922A1AD11E
:1056D8001B0A022B0CD1EB6853B19A0708D11B792E
:1056E800AC2B05D129460322BDE87040FFF7D2BB99
:1056F80029462046FFF7AFFF6968A36A0122D3F85D
:105708009C30090ADAE729462046FFF7E1FAA36A3E
:105718000122D3F89C301146D0E70000184B2DE940
:10572800F041D3F84C7204460D463FBBC668896801
:10573800731CC36001223346FFF702FBA36A606A49
:105748005B691F2101229847E96851B12046FFF79C
:10575800BFFAA36A606AD3F8B8503A463B460121BB
:10576800A847A36A606AD3F8C43001219847A36A9E
:10577800606A9B6A3146BDE8F0411847BDE8F08190
:10578800980000202DE9F041026A1278072A0446A1
:1057980004D0BDE8F0411A4AFFF7FEB98D685DB93B
:1057A800836A406A1B6B10219847A36A606AD3F822
:1057B800C030BDE8F041184715F003021DD12B7920
:1057C8001B2B1AD1C668EF68731CC360B9683346CF
:1057D800FFF7B6FAA9682046FFF77AFAA36A606A63
:1057E800D3F8C0309847A36A606A9B6A31469847E5
:1057F800F9682046FFF76CFAD7E72946F9E700BFB2
:10580800356B040810B4026A0446407801280B4638
:1058180004D15DF8044B104602F095B8A16A606A9D
:105828005DF8044B183102F09DB800008B072DE994
:10583800F14F04460D46164611D001F00F03022B16
:1058480016D1D7074FEA111104D401B0BDE8F04FC3
:10585800FFF7D8BF01B0BDE8F04FFFF725BA496898
:10586800CBB22D2B7BD00BD8062B0DD02C2B12D0E6
:105878004E4A2946204601B0BDE8F04FFFF78CB9E3
:105888002E2B7FD09D2BF3D1002EF1D105F10802EC
:10589800090A20467BE0022A02D0A968FFF718FA15
:1058A800EF68002FE4D017F00309E1D17B68DAB282
:1058B8008E2AB8460DD1022E4FEA132805D007F1DB
:1058C800080A08F1FF3BD94511DB08F1010857F830
:1058D800288098F80430312B24D1022E0FD1A36AE6
:1058E800606A5B6E9847A36ADB6C012115E05AF881
:1058F800041B2046FFF7ECF909F10109E3E7D8F8A2
:1059080008102046FFF7E4F9012EA36AECD19B6D3D
:10591800606A9847A36ADB6C0021606A01B0BDE841
:10592800F04F1847322BA3D1012ED4E909030CD12B
:105938005B6D9847A36AD8F808101B6D0022606A4F
:10594800090901B0BDE8F04F1847022E01D11B6EBE
:105958009847A36AD8F808101B6D0122EFE7AA68D8
:10596800002A85D0002E83D15168090A022907D15F
:10597800D3682BB1980703D11B79AC2B3FF478AFD0
:10598800083286E7002A7FF473AFA96821B901B00D
:10599800BDE8F04F00F074B88E0703D10B79922B55
:1059A8000A46E1D005F10802012172E7416B0408BB
:1059B8002DE9F047C7681E46BB1CC360836A0446CE
:1059C8000D469B6A406A394690469847A36A606AC2
:1059D800D3F8883007F1010949469847A968002299
:1059E8002046FFF723FF2D69002D2DD14146204683
:1059F800FFF76EF9236AA06A197806291DD1D0F835
:105A0800C830606A2946984720460121FEF7DCFE27
:105A1800A36A606ADB6D9847A36A606A9B6E394621
:105A28009847A36A606A9B6A49469847A36A606A6E
:105A3800D3F88C30BDE8F0471847B200D0F8A4502E
:105A4800606A0532A847E7E72B79AD2B07D1A9682B
:105A58003B4600222046FFF773F9ED68C4E7E96882
:105A68002046FFF735F9A36A606AD3F8843001212C
:105A78009847731C424629462046FFF799FFCBE713
:105A88002DE9F84304460D46904601F1FF390026FA
:105A98004FF0FF37B9F1FF3F0CD17B1C05D1A36A4A
:105AA800606AD3F8A830294698470026AE421DD12F
:105AB800BDE8F88358F8261071B18A070CD10B7924
:105AC800222B09D101370BD1A36A606AD3F8AC3015
